{
  "contractName": "Land",
  "abi": [
    {
      "inputs": [
        {
          "internalType": "string",
          "name": "_name",
          "type": "string"
        },
        {
          "internalType": "string",
          "name": "_symbol",
          "type": "string"
        },
        {
          "internalType": "uint256",
          "name": "_cost",
          "type": "uint256"
        }
      ],
      "stateMutability": "nonpayable",
      "type": "constructor"
    },
    {
      "anonymous": false,
      "inputs": [
        {
          "indexed": true,
          "internalType": "address",
          "name": "owner",
          "type": "address"
        },
        {
          "indexed": true,
          "internalType": "address",
          "name": "approved",
          "type": "address"
        },
        {
          "indexed": true,
          "internalType": "uint256",
          "name": "tokenId",
          "type": "uint256"
        }
      ],
      "name": "Approval",
      "type": "event"
    },
    {
      "anonymous": false,
      "inputs": [
        {
          "indexed": true,
          "internalType": "address",
          "name": "owner",
          "type": "address"
        },
        {
          "indexed": true,
          "internalType": "address",
          "name": "operator",
          "type": "address"
        },
        {
          "indexed": false,
          "internalType": "bool",
          "name": "approved",
          "type": "bool"
        }
      ],
      "name": "ApprovalForAll",
      "type": "event"
    },
    {
      "anonymous": false,
      "inputs": [
        {
          "indexed": true,
          "internalType": "address",
          "name": "from",
          "type": "address"
        },
        {
          "indexed": true,
          "internalType": "address",
          "name": "to",
          "type": "address"
        },
        {
          "indexed": true,
          "internalType": "uint256",
          "name": "tokenId",
          "type": "uint256"
        }
      ],
      "name": "Transfer",
      "type": "event"
    },
    {
      "inputs": [
        {
          "internalType": "address",
          "name": "to",
          "type": "address"
        },
        {
          "internalType": "uint256",
          "name": "tokenId",
          "type": "uint256"
        }
      ],
      "name": "approve",
      "outputs": [],
      "stateMutability": "nonpayable",
      "type": "function"
    },
    {
      "inputs": [
        {
          "internalType": "address",
          "name": "owner",
          "type": "address"
        }
      ],
      "name": "balanceOf",
      "outputs": [
        {
          "internalType": "uint256",
          "name": "",
          "type": "uint256"
        }
      ],
      "stateMutability": "view",
      "type": "function",
      "constant": true
    },
    {
      "inputs": [
        {
          "internalType": "uint256",
          "name": "",
          "type": "uint256"
        }
      ],
      "name": "buildings",
      "outputs": [
        {
          "internalType": "string",
          "name": "name",
          "type": "string"
        },
        {
          "internalType": "address",
          "name": "owner",
          "type": "address"
        },
        {
          "internalType": "int256",
          "name": "posX",
          "type": "int256"
        },
        {
          "internalType": "int256",
          "name": "posY",
          "type": "int256"
        },
        {
          "internalType": "int256",
          "name": "posZ",
          "type": "int256"
        },
        {
          "internalType": "uint256",
          "name": "sizeX",
          "type": "uint256"
        },
        {
          "internalType": "uint256",
          "name": "sizeY",
          "type": "uint256"
        },
        {
          "internalType": "uint256",
          "name": "sizeZ",
          "type": "uint256"
        }
      ],
      "stateMutability": "view",
      "type": "function",
      "constant": true
    },
    {
      "inputs": [],
      "name": "cost",
      "outputs": [
        {
          "internalType": "uint256",
          "name": "",
          "type": "uint256"
        }
      ],
      "stateMutability": "view",
      "type": "function",
      "constant": true
    },
    {
      "inputs": [
        {
          "internalType": "uint256",
          "name": "tokenId",
          "type": "uint256"
        }
      ],
      "name": "getApproved",
      "outputs": [
        {
          "internalType": "address",
          "name": "",
          "type": "address"
        }
      ],
      "stateMutability": "view",
      "type": "function",
      "constant": true
    },
    {
      "inputs": [
        {
          "internalType": "address",
          "name": "owner",
          "type": "address"
        },
        {
          "internalType": "address",
          "name": "operator",
          "type": "address"
        }
      ],
      "name": "isApprovedForAll",
      "outputs": [
        {
          "internalType": "bool",
          "name": "",
          "type": "bool"
        }
      ],
      "stateMutability": "view",
      "type": "function",
      "constant": true
    },
    {
      "inputs": [],
      "name": "maxSupply",
      "outputs": [
        {
          "internalType": "uint256",
          "name": "",
          "type": "uint256"
        }
      ],
      "stateMutability": "view",
      "type": "function",
      "constant": true
    },
    {
      "inputs": [],
      "name": "name",
      "outputs": [
        {
          "internalType": "string",
          "name": "",
          "type": "string"
        }
      ],
      "stateMutability": "view",
      "type": "function",
      "constant": true
    },
    {
      "inputs": [
        {
          "internalType": "uint256",
          "name": "tokenId",
          "type": "uint256"
        }
      ],
      "name": "ownerOf",
      "outputs": [
        {
          "internalType": "address",
          "name": "",
          "type": "address"
        }
      ],
      "stateMutability": "view",
      "type": "function",
      "constant": true
    },
    {
      "inputs": [
        {
          "internalType": "address",
          "name": "from",
          "type": "address"
        },
        {
          "internalType": "address",
          "name": "to",
          "type": "address"
        },
        {
          "internalType": "uint256",
          "name": "tokenId",
          "type": "uint256"
        }
      ],
      "name": "safeTransferFrom",
      "outputs": [],
      "stateMutability": "nonpayable",
      "type": "function"
    },
    {
      "inputs": [
        {
          "internalType": "address",
          "name": "from",
          "type": "address"
        },
        {
          "internalType": "address",
          "name": "to",
          "type": "address"
        },
        {
          "internalType": "uint256",
          "name": "tokenId",
          "type": "uint256"
        },
        {
          "internalType": "bytes",
          "name": "data",
          "type": "bytes"
        }
      ],
      "name": "safeTransferFrom",
      "outputs": [],
      "stateMutability": "nonpayable",
      "type": "function"
    },
    {
      "inputs": [
        {
          "internalType": "address",
          "name": "operator",
          "type": "address"
        },
        {
          "internalType": "bool",
          "name": "approved",
          "type": "bool"
        }
      ],
      "name": "setApprovalForAll",
      "outputs": [],
      "stateMutability": "nonpayable",
      "type": "function"
    },
    {
      "inputs": [
        {
          "internalType": "bytes4",
          "name": "interfaceId",
          "type": "bytes4"
        }
      ],
      "name": "supportsInterface",
      "outputs": [
        {
          "internalType": "bool",
          "name": "",
          "type": "bool"
        }
      ],
      "stateMutability": "view",
      "type": "function",
      "constant": true
    },
    {
      "inputs": [],
      "name": "symbol",
      "outputs": [
        {
          "internalType": "string",
          "name": "",
          "type": "string"
        }
      ],
      "stateMutability": "view",
      "type": "function",
      "constant": true
    },
    {
      "inputs": [
        {
          "internalType": "uint256",
          "name": "tokenId",
          "type": "uint256"
        }
      ],
      "name": "tokenURI",
      "outputs": [
        {
          "internalType": "string",
          "name": "",
          "type": "string"
        }
      ],
      "stateMutability": "view",
      "type": "function",
      "constant": true
    },
    {
      "inputs": [],
      "name": "totalSupply",
      "outputs": [
        {
          "internalType": "uint256",
          "name": "",
          "type": "uint256"
        }
      ],
      "stateMutability": "view",
      "type": "function",
      "constant": true
    },
    {
      "inputs": [
        {
          "internalType": "uint256",
          "name": "_id",
          "type": "uint256"
        }
      ],
      "name": "mint",
      "outputs": [],
      "stateMutability": "payable",
      "type": "function",
      "payable": true
    },
    {
      "inputs": [
        {
          "internalType": "address",
          "name": "from",
          "type": "address"
        },
        {
          "internalType": "address",
          "name": "to",
          "type": "address"
        },
        {
          "internalType": "uint256",
          "name": "tokenId",
          "type": "uint256"
        }
      ],
      "name": "transferFrom",
      "outputs": [],
      "stateMutability": "nonpayable",
      "type": "function"
    },
    {
      "inputs": [],
      "name": "getBuildings",
      "outputs": [
        {
          "components": [
            {
              "internalType": "string",
              "name": "name",
              "type": "string"
            },
            {
              "internalType": "address",
              "name": "owner",
              "type": "address"
            },
            {
              "internalType": "int256",
              "name": "posX",
              "type": "int256"
            },
            {
              "internalType": "int256",
              "name": "posY",
              "type": "int256"
            },
            {
              "internalType": "int256",
              "name": "posZ",
              "type": "int256"
            },
            {
              "internalType": "uint256",
              "name": "sizeX",
              "type": "uint256"
            },
            {
              "internalType": "uint256",
              "name": "sizeY",
              "type": "uint256"
            },
            {
              "internalType": "uint256",
              "name": "sizeZ",
              "type": "uint256"
            }
          ],
          "internalType": "struct Land.Building[]",
          "name": "",
          "type": "tuple[]"
        }
      ],
      "stateMutability": "view",
      "type": "function",
      "constant": true
    },
    {
      "inputs": [
        {
          "internalType": "uint256",
          "name": "_id",
          "type": "uint256"
        }
      ],
      "name": "getBuilding",
      "outputs": [
        {
          "components": [
            {
              "internalType": "string",
              "name": "name",
              "type": "string"
            },
            {
              "internalType": "address",
              "name": "owner",
              "type": "address"
            },
            {
              "internalType": "int256",
              "name": "posX",
              "type": "int256"
            },
            {
              "internalType": "int256",
              "name": "posY",
              "type": "int256"
            },
            {
              "internalType": "int256",
              "name": "posZ",
              "type": "int256"
            },
            {
              "internalType": "uint256",
              "name": "sizeX",
              "type": "uint256"
            },
            {
              "internalType": "uint256",
              "name": "sizeY",
              "type": "uint256"
            },
            {
              "internalType": "uint256",
              "name": "sizeZ",
              "type": "uint256"
            }
          ],
          "internalType": "struct Land.Building",
          "name": "",
          "type": "tuple"
        }
      ],
      "stateMutability": "view",
      "type": "function",
      "constant": true
    }
  ],
  "bytecode": "0x6080604052670de0b6b3a764000060065560056007555f60085534801562000025575f80fd5b5060405162003d3f38038062003d3f83398181016040528101906200004b9190620008f3565b8282815f90816200005d919062000bb8565b5080600190816200006f919062000bb8565b5050508060068190555060096040518061010001604052806040518060400160405280600981526020017f436974792048616c6c000000000000000000000000000000000000000000000081525081526020015f73ffffffffffffffffffffffffffffffffffffffff1681526020015f81526020015f81526020015f8152602001600a8152602001600a8152602001600a815250908060018154018082558091505060019003905f5260205f2090600802015f909190919091505f820151815f0190816200013e919062000bb8565b506020820151816001015f6101000a81548173ffffffffffffffffffffffffffffffffffffffff021916908373ffffffffffffffffffffffffffffffffffffffff16021790555060408201518160020155606082015181600301556080820151816004015560a0820151816005015560c0820151816006015560e08201518160070155505060096040518061010001604052806040518060400160405280600781526020017f5374616469756d0000000000000000000000000000000000000000000000000081525081526020015f73ffffffffffffffffffffffffffffffffffffffff1681526020015f8152602001600a81526020015f8152602001600a8152602001600581526020016003815250908060018154018082558091505060019003905f5260205f2090600802015f909190919091505f820151815f01908162000289919062000bb8565b506020820151816001015f6101000a81548173ffffffffffffffffffffffffffffffffffffffff021916908373ffffffffffffffffffffffffffffffffffffffff16021790555060408201518160020155606082015181600301556080820151816004015560a0820151816005015560c0820151816006015560e08201518160070155505060096040518061010001604052806040518060400160405280600a81526020017f556e69766572736974790000000000000000000000000000000000000000000081525081526020015f73ffffffffffffffffffffffffffffffffffffffff1681526020015f81526020017ffffffffffffffffffffffffffffffffffffffffffffffffffffffffffffffff681526020015f8152602001600a8152602001600581526020016003815250908060018154018082558091505060019003905f5260205f2090600802015f909190919091505f820151815f019081620003f3919062000bb8565b506020820151816001015f6101000a81548173ffffffffffffffffffffffffffffffffffffffff021916908373ffffffffffffffffffffffffffffffffffffffff16021790555060408201518160020155606082015181600301556080820151816004015560a0820151816005015560c0820151816006015560e08201518160070155505060096040518061010001604052806040518060400160405280601081526020017f53686f7070696e6720506c617a6120310000000000000000000000000000000081525081526020015f73ffffffffffffffffffffffffffffffffffffffff168152602001600a81526020015f81526020015f815260200160058152602001601981526020016005815250908060018154018082558091505060019003905f5260205f2090600802015f909190919091505f820151815f0190816200053e919062000bb8565b506020820151816001015f6101000a81548173ffffffffffffffffffffffffffffffffffffffff021916908373ffffffffffffffffffffffffffffffffffffffff16021790555060408201518160020155606082015181600301556080820151816004015560a0820151816005015560c0820151816006015560e08201518160070155505060096040518061010001604052806040518060400160405280601081526020017f53686f7070696e6720506c617a6120320000000000000000000000000000000081525081526020015f73ffffffffffffffffffffffffffffffffffffffff1681526020017ffffffffffffffffffffffffffffffffffffffffffffffffffffffffffffffff681526020015f81526020015f815260200160058152602001601981526020016005815250908060018154018082558091505060019003905f5260205f2090600802015f909190919091505f820151815f019081620006a8919062000bb8565b506020820151816001015f6101000a81548173ffffffffffffffffffffffffffffffffffffffff021916908373ffffffffffffffffffffffffffffffffffffffff16021790555060408201518160020155606082015181600301556080820151816004015560a0820151816005015560c0820151816006015560e08201518160070155505050505062000c9c565b5f604051905090565b5f80fd5b5f80fd5b5f80fd5b5f80fd5b5f601f19601f8301169050919050565b7f4e487b71000000000000000000000000000000000000000000000000000000005f52604160045260245ffd5b62000797826200074f565b810181811067ffffffffffffffff82111715620007b957620007b86200075f565b5b80604052505050565b5f620007cd62000736565b9050620007db82826200078c565b919050565b5f67ffffffffffffffff821115620007fd57620007fc6200075f565b5b62000808826200074f565b9050602081019050919050565b5f5b838110156200083457808201518184015260208101905062000817565b5f8484015250505050565b5f620008556200084f84620007e0565b620007c2565b9050828152602081018484840111156200087457620008736200074b565b5b6200088184828562000815565b509392505050565b5f82601f830112620008a0576200089f62000747565b5b8151620008b28482602086016200083f565b91505092915050565b5f819050919050565b620008cf81620008bb565b8114620008da575f80fd5b50565b5f81519050620008ed81620008c4565b92915050565b5f805f606084860312156200090d576200090c6200073f565b5b5f84015167ffffffffffffffff8111156200092d576200092c62000743565b5b6200093b8682870162000889565b935050602084015167ffffffffffffffff8111156200095f576200095e62000743565b5b6200096d8682870162000889565b92505060406200098086828701620008dd565b9150509250925092565b5f81519050919050565b7f4e487b71000000000000000000000000000000000000000000000000000000005f52602260045260245ffd5b5f6002820490506001821680620009d957607f821691505b602082108103620009ef57620009ee62000994565b5b50919050565b5f819050815f5260205f209050919050565b5f6020601f8301049050919050565b5f82821b905092915050565b5f6008830262000a537fffffffffffffffffffffffffffffffffffffffffffffffffffffffffffffffff8262000a16565b62000a5f868362000a16565b95508019841693508086168417925050509392505050565b5f819050919050565b5f62000aa062000a9a62000a9484620008bb565b62000a77565b620008bb565b9050919050565b5f819050919050565b62000abb8362000a80565b62000ad362000aca8262000aa7565b84845462000a22565b825550505050565b5f90565b62000ae962000adb565b62000af681848462000ab0565b505050565b5b8181101562000b1d5762000b115f8262000adf565b60018101905062000afc565b5050565b601f82111562000b6c5762000b3681620009f5565b62000b418462000a07565b8101602085101562000b51578190505b62000b6962000b608562000a07565b83018262000afb565b50505b505050565b5f82821c905092915050565b5f62000b8e5f198460080262000b71565b1980831691505092915050565b5f62000ba8838362000b7d565b9150826002028217905092915050565b62000bc3826200098a565b67ffffffffffffffff81111562000bdf5762000bde6200075f565b5b62000beb8254620009c1565b62000bf882828562000b21565b5f60209050601f83116001811462000c2e575f841562000c19578287015190505b62000c25858262000b9b565b86555062000c94565b601f19841662000c3e86620009f5565b5f5b8281101562000c675784890151825560018201915060208501945060208101905062000c40565b8683101562000c87578489015162000c83601f89168262000b7d565b8355505b6001600288020188555050505b505050505050565b6130958062000caa5f395ff3fe60806040526004361061011e575f3560e01c806370a082311161009f578063b88d4fde11610063578063b88d4fde146103f5578063c87b56dd1461041d578063d5abeb0114610459578063d9cf6a2614610483578063e985e9c5146104ad5761011e565b806370a082311461030f57806395d89b411461034b5780639dfd8b0214610375578063a0712d68146103b1578063a22cb465146103cd5761011e565b806318160ddd116100e657806318160ddd1461021657806323b872dd1461024057806342842e0e146102685780634c96a062146102905780636352211e146102d35761011e565b806301ffc9a71461012257806306fdde031461015e578063081812fc14610188578063095ea7b3146101c457806313faede6146101ec575b5f80fd5b34801561012d575f80fd5b5061014860048036038101906101439190611f4d565b6104e9565b6040516101559190611f92565b60405180910390f35b348015610169575f80fd5b506101726105ca565b60405161017f9190612035565b60405180910390f35b348015610193575f80fd5b506101ae60048036038101906101a99190612088565b610659565b6040516101bb91906120f2565b60405180910390f35b3480156101cf575f80fd5b506101ea60048036038101906101e59190612135565b61069b565b005b3480156101f7575f80fd5b506102006107b1565b60405161020d9190612182565b60405180910390f35b348015610221575f80fd5b5061022a6107b7565b6040516102379190612182565b60405180910390f35b34801561024b575f80fd5b506102666004803603810190610261919061219b565b6107bd565b005b348015610273575f80fd5b5061028e6004803603810190610289919061219b565b61088a565b005b34801561029b575f80fd5b506102b660048036038101906102b19190612088565b6108a9565b6040516102ca989796959493929190612203565b60405180910390f35b3480156102de575f80fd5b506102f960048036038101906102f49190612088565b6109a1565b60405161030691906120f2565b60405180910390f35b34801561031a575f80fd5b5061033560048036038101906103309190612286565b610a25565b6040516103429190612182565b60405180910390f35b348015610356575f80fd5b5061035f610ad9565b60405161036c9190612035565b60405180910390f35b348015610380575f80fd5b5061039b60048036038101906103969190612088565b610b69565b6040516103a891906123d3565b60405180910390f35b6103cb60048036038101906103c69190612088565b610cd0565b005b3480156103d8575f80fd5b506103f360048036038101906103ee919061241d565b610e0d565b005b348015610400575f80fd5b5061041b60048036038101906104169190612587565b610e23565b005b348015610428575f80fd5b50610443600480360381019061043e9190612088565b610e85565b6040516104509190612035565b60405180910390f35b348015610464575f80fd5b5061046d610eea565b60405161047a9190612182565b60405180910390f35b34801561048e575f80fd5b50610497610ef0565b6040516104a4919061276f565b60405180910390f35b3480156104b8575f80fd5b506104d360048036038101906104ce919061278f565b61106d565b6040516104e09190611f92565b60405180910390f35b5f7f80ac58cd000000000000000000000000000000000000000000000000000000007bffffffffffffffffffffffffffffffffffffffffffffffffffffffff1916827bffffffffffffffffffffffffffffffffffffffffffffffffffffffff191614806105b357507f5b5e139f000000000000000000000000000000000000000000000000000000007bffffffffffffffffffffffffffffffffffffffffffffffffffffffff1916827bffffffffffffffffffffffffffffffffffffffffffffffffffffffff1916145b806105c357506105c2826110fb565b5b9050919050565b60605f80546105d8906127fa565b80601f0160208091040260200160405190810160405280929190818152602001828054610604906127fa565b801561064f5780601f106106265761010080835404028352916020019161064f565b820191905f5260205f20905b81548152906001019060200180831161063257829003601f168201915b5050505050905090565b5f61066382611164565b60045f8381526020019081526020015f205f9054906101000a900473ffffffffffffffffffffffffffffffffffffffff169050919050565b5f6106a5826109a1565b90508073ffffffffffffffffffffffffffffffffffffffff168373ffffffffffffffffffffffffffffffffffffffff1603610715576040517f08c379a000000000000000000000000000000000000000000000000000000000815260040161070c9061289a565b60405180910390fd5b8073ffffffffffffffffffffffffffffffffffffffff166107346111af565b73ffffffffffffffffffffffffffffffffffffffff16148061076357506107628161075d6111af565b61106d565b5b6107a2576040517f08c379a000000000000000000000000000000000000000000000000000000000815260040161079990612928565b60405180910390fd5b6107ac83836111b6565b505050565b60065481565b60085481565b6107ce6107c86111af565b8261126c565b61080d576040517f08c379a0000000000000000000000000000000000000000000000000000000008152600401610804906129b6565b60405180910390fd5b81600960018361081d9190612a01565b8154811061082e5761082d612a34565b5b905f5260205f2090600802016001015f6101000a81548173ffffffffffffffffffffffffffffffffffffffff021916908373ffffffffffffffffffffffffffffffffffffffff160217905550610885838383611300565b505050565b6108a483838360405180602001604052805f815250610e23565b505050565b600981815481106108b8575f80fd5b905f5260205f2090600802015f91509050805f0180546108d7906127fa565b80601f0160208091040260200160405190810160405280929190818152602001828054610903906127fa565b801561094e5780601f106109255761010080835404028352916020019161094e565b820191905f5260205f20905b81548152906001019060200180831161093157829003601f168201915b505050505090806001015f9054906101000a900473ffffffffffffffffffffffffffffffffffffffff16908060020154908060030154908060040154908060050154908060060154908060070154905088565b5f806109ac836115ec565b90505f73ffffffffffffffffffffffffffffffffffffffff168173ffffffffffffffffffffffffffffffffffffffff1603610a1c576040517f08c379a0000000000000000000000000000000000000000000000000000000008152600401610a1390612aab565b60405180910390fd5b80915050919050565b5f8073ffffffffffffffffffffffffffffffffffffffff168273ffffffffffffffffffffffffffffffffffffffff1603610a94576040517f08c379a0000000000000000000000000000000000000000000000000000000008152600401610a8b90612b39565b60405180910390fd5b60035f8373ffffffffffffffffffffffffffffffffffffffff1673ffffffffffffffffffffffffffffffffffffffff1681526020019081526020015f20549050919050565b606060018054610ae8906127fa565b80601f0160208091040260200160405190810160405280929190818152602001828054610b14906127fa565b8015610b5f5780601f10610b3657610100808354040283529160200191610b5f565b820191905f5260205f20905b815481529060010190602001808311610b4257829003601f168201915b5050505050905090565b610b71611e93565b6009600183610b809190612a01565b81548110610b9157610b90612a34565b5b905f5260205f209060080201604051806101000160405290815f82018054610bb8906127fa565b80601f0160208091040260200160405190810160405280929190818152602001828054610be4906127fa565b8015610c2f5780601f10610c0657610100808354040283529160200191610c2f565b820191905f5260205f20905b815481529060010190602001808311610c1257829003601f168201915b50505050508152602001600182015f9054906101000a900473ffffffffffffffffffffffffffffffffffffffff1673ffffffffffffffffffffffffffffffffffffffff1673ffffffffffffffffffffffffffffffffffffffff16815260200160028201548152602001600382015481526020016004820154815260200160058201548152602001600682015481526020016007820154815250509050919050565b5f6008549050600754811115610ce4575f80fd5b5f73ffffffffffffffffffffffffffffffffffffffff166009600184610d0a9190612a01565b81548110610d1b57610d1a612a34565b5b905f5260205f2090600802016001015f9054906101000a900473ffffffffffffffffffffffffffffffffffffffff1673ffffffffffffffffffffffffffffffffffffffff1614610d69575f80fd5b670de0b6b3a7640000341015610d7d575f80fd5b336009600184610d8d9190612a01565b81548110610d9e57610d9d612a34565b5b905f5260205f2090600802016001015f6101000a81548173ffffffffffffffffffffffffffffffffffffffff021916908373ffffffffffffffffffffffffffffffffffffffff1602179055506001600854610df99190612b57565b600881905550610e093383611625565b5050565b610e1f610e186111af565b8383611642565b5050565b610e34610e2e6111af565b8361126c565b610e73576040517f08c379a0000000000000000000000000000000000000000000000000000000008152600401610e6a90612bfa565b60405180910390fd5b610e7f848484846117a9565b50505050565b6060610e9082611164565b5f610e99611805565b90505f815111610eb75760405180602001604052805f815250610ee2565b80610ec18461181b565b604051602001610ed2929190612c52565b6040516020818303038152906040525b915050919050565b60075481565b60606009805480602002602001604051908101604052809291908181526020015f905b82821015611064578382905f5260205f209060080201604051806101000160405290815f82018054610f44906127fa565b80601f0160208091040260200160405190810160405280929190818152602001828054610f70906127fa565b8015610fbb5780601f10610f9257610100808354040283529160200191610fbb565b820191905f5260205f20905b815481529060010190602001808311610f9e57829003601f168201915b50505050508152602001600182015f9054906101000a900473ffffffffffffffffffffffffffffffffffffffff1673ffffffffffffffffffffffffffffffffffffffff1673ffffffffffffffffffffffffffffffffffffffff168152602001600282015481526020016003820154815260200160048201548152602001600582015481526020016006820154815260200160078201548152505081526020019060010190610f13565b50505050905090565b5f60055f8473ffffffffffffffffffffffffffffffffffffffff1673ffffffffffffffffffffffffffffffffffffffff1681526020019081526020015f205f8373ffffffffffffffffffffffffffffffffffffffff1673ffffffffffffffffffffffffffffffffffffffff1681526020019081526020015f205f9054906101000a900460ff16905092915050565b5f7f01ffc9a7000000000000000000000000000000000000000000000000000000007bffffffffffffffffffffffffffffffffffffffffffffffffffffffff1916827bffffffffffffffffffffffffffffffffffffffffffffffffffffffff1916149050919050565b61116d816118e5565b6111ac576040517f08c379a00000000000000000000000000000000000000000000000000000000081526004016111a390612aab565b60405180910390fd5b50565b5f33905090565b8160045f8381526020019081526020015f205f6101000a81548173ffffffffffffffffffffffffffffffffffffffff021916908373ffffffffffffffffffffffffffffffffffffffff160217905550808273ffffffffffffffffffffffffffffffffffffffff16611226836109a1565b73ffffffffffffffffffffffffffffffffffffffff167f8c5be1e5ebec7d5bd14f71427d1e84f3dd0314c0f7b2291e5b200ac8c7c3b92560405160405180910390a45050565b5f80611277836109a1565b90508073ffffffffffffffffffffffffffffffffffffffff168473ffffffffffffffffffffffffffffffffffffffff1614806112b957506112b8818561106d565b5b806112f757508373ffffffffffffffffffffffffffffffffffffffff166112df84610659565b73ffffffffffffffffffffffffffffffffffffffff16145b91505092915050565b8273ffffffffffffffffffffffffffffffffffffffff16611320826109a1565b73ffffffffffffffffffffffffffffffffffffffff1614611376576040517f08c379a000000000000000000000000000000000000000000000000000000000815260040161136d90612ce5565b60405180910390fd5b5f73ffffffffffffffffffffffffffffffffffffffff168273ffffffffffffffffffffffffffffffffffffffff16036113e4576040517f08c379a00000000000000000000000000000000000000000000000000000000081526004016113db90612d73565b60405180910390fd5b6113f18383836001611925565b8273ffffffffffffffffffffffffffffffffffffffff16611411826109a1565b73ffffffffffffffffffffffffffffffffffffffff1614611467576040517f08c379a000000000000000000000000000000000000000000000000000000000815260040161145e90612ce5565b60405180910390fd5b60045f8281526020019081526020015f205f6101000a81549073ffffffffffffffffffffffffffffffffffffffff0219169055600160035f8573ffffffffffffffffffffffffffffffffffffffff1673ffffffffffffffffffffffffffffffffffffffff1681526020019081526020015f205f8282540392505081905550600160035f8473ffffffffffffffffffffffffffffffffffffffff1673ffffffffffffffffffffffffffffffffffffffff1681526020019081526020015f205f82825401925050819055508160025f8381526020019081526020015f205f6101000a81548173ffffffffffffffffffffffffffffffffffffffff021916908373ffffffffffffffffffffffffffffffffffffffff160217905550808273ffffffffffffffffffffffffffffffffffffffff168473ffffffffffffffffffffffffffffffffffffffff167fddf252ad1be2c89b69c2b068fc378daa952ba7f163c4a11628f55a4df523b3ef60405160405180910390a46115e7838383600161192b565b505050565b5f60025f8381526020019081526020015f205f9054906101000a900473ffffffffffffffffffffffffffffffffffffffff169050919050565b61163e828260405180602001604052805f815250611931565b5050565b8173ffffffffffffffffffffffffffffffffffffffff168373ffffffffffffffffffffffffffffffffffffffff16036116b0576040517f08c379a00000000000000000000000000000000000000000000000000000000081526004016116a790612ddb565b60405180910390fd5b8060055f8573ffffffffffffffffffffffffffffffffffffffff1673ffffffffffffffffffffffffffffffffffffffff1681526020019081526020015f205f8473ffffffffffffffffffffffffffffffffffffffff1673ffffffffffffffffffffffffffffffffffffffff1681526020019081526020015f205f6101000a81548160ff0219169083151502179055508173ffffffffffffffffffffffffffffffffffffffff168373ffffffffffffffffffffffffffffffffffffffff167f17307eab39ab6107e8899845ad3d59bd9653f200f220920489ca2b5937696c318360405161179c9190611f92565b60405180910390a3505050565b6117b4848484611300565b6117c08484848461198b565b6117ff576040517f08c379a00000000000000000000000000000000000000000000000000000000081526004016117f690612e69565b60405180910390fd5b50505050565b606060405180602001604052805f815250905090565b60605f600161182984611b0d565b0190505f8167ffffffffffffffff81111561184757611846612463565b5b6040519080825280601f01601f1916602001820160405280156118795781602001600182028036833780820191505090505b5090505f82602001820190505b6001156118da578080600190039150507f3031323334353637383961626364656600000000000000000000000000000000600a86061a8153600a85816118cf576118ce612e87565b5b0494505f8503611886575b819350505050919050565b5f8073ffffffffffffffffffffffffffffffffffffffff16611906836115ec565b73ffffffffffffffffffffffffffffffffffffffff1614159050919050565b50505050565b50505050565b61193b8383611c5e565b6119475f84848461198b565b611986576040517f08c379a000000000000000000000000000000000000000000000000000000000815260040161197d90612e69565b60405180910390fd5b505050565b5f6119ab8473ffffffffffffffffffffffffffffffffffffffff16611e71565b15611b00578373ffffffffffffffffffffffffffffffffffffffff1663150b7a026119d46111af565b8786866040518563ffffffff1660e01b81526004016119f69493929190612f06565b6020604051808303815f875af1925050508015611a3157506040513d601f19601f82011682018060405250810190611a2e9190612f64565b60015b611ab0573d805f8114611a5f576040519150601f19603f3d011682016040523d82523d5f602084013e611a64565b606091505b505f815103611aa8576040517f08c379a0000000000000000000000000000000000000000000000000000000008152600401611a9f90612e69565b60405180910390fd5b805181602001fd5b63150b7a0260e01b7bffffffffffffffffffffffffffffffffffffffffffffffffffffffff1916817bffffffffffffffffffffffffffffffffffffffffffffffffffffffff191614915050611b05565b600190505b949350505050565b5f805f90507a184f03e93ff9f4daa797ed6e38ed64bf6a1f0100000000000000008310611b69577a184f03e93ff9f4daa797ed6e38ed64bf6a1f0100000000000000008381611b5f57611b5e612e87565b5b0492506040810190505b6d04ee2d6d415b85acef81000000008310611ba6576d04ee2d6d415b85acef81000000008381611b9c57611b9b612e87565b5b0492506020810190505b662386f26fc100008310611bd557662386f26fc100008381611bcb57611bca612e87565b5b0492506010810190505b6305f5e1008310611bfe576305f5e1008381611bf457611bf3612e87565b5b0492506008810190505b6127108310611c23576127108381611c1957611c18612e87565b5b0492506004810190505b60648310611c465760648381611c3c57611c3b612e87565b5b0492506002810190505b600a8310611c55576001810190505b80915050919050565b5f73ffffffffffffffffffffffffffffffffffffffff168273ffffffffffffffffffffffffffffffffffffffff1603611ccc576040517f08c379a0000000000000000000000000000000000000000000000000000000008152600401611cc390612fd9565b60405180910390fd5b611cd5816118e5565b15611d15576040517f08c379a0000000000000000000000000000000000000000000000000000000008152600401611d0c90613041565b60405180910390fd5b611d225f83836001611925565b611d2b816118e5565b15611d6b576040517f08c379a0000000000000000000000000000000000000000000000000000000008152600401611d6290613041565b60405180910390fd5b600160035f8473ffffffffffffffffffffffffffffffffffffffff1673ffffffffffffffffffffffffffffffffffffffff1681526020019081526020015f205f82825401925050819055508160025f8381526020019081526020015f205f6101000a81548173ffffffffffffffffffffffffffffffffffffffff021916908373ffffffffffffffffffffffffffffffffffffffff160217905550808273ffffffffffffffffffffffffffffffffffffffff165f73ffffffffffffffffffffffffffffffffffffffff167fddf252ad1be2c89b69c2b068fc378daa952ba7f163c4a11628f55a4df523b3ef60405160405180910390a4611e6d5f8383600161192b565b5050565b5f808273ffffffffffffffffffffffffffffffffffffffff163b119050919050565b604051806101000160405280606081526020015f73ffffffffffffffffffffffffffffffffffffffff1681526020015f81526020015f81526020015f81526020015f81526020015f81526020015f81525090565b5f604051905090565b5f80fd5b5f80fd5b5f7fffffffff0000000000000000000000000000000000000000000000000000000082169050919050565b611f2c81611ef8565b8114611f36575f80fd5b50565b5f81359050611f4781611f23565b92915050565b5f60208284031215611f6257611f61611ef0565b5b5f611f6f84828501611f39565b91505092915050565b5f8115159050919050565b611f8c81611f78565b82525050565b5f602082019050611fa55f830184611f83565b92915050565b5f81519050919050565b5f82825260208201905092915050565b5f5b83811015611fe2578082015181840152602081019050611fc7565b5f8484015250505050565b5f601f19601f8301169050919050565b5f61200782611fab565b6120118185611fb5565b9350612021818560208601611fc5565b61202a81611fed565b840191505092915050565b5f6020820190508181035f83015261204d8184611ffd565b905092915050565b5f819050919050565b61206781612055565b8114612071575f80fd5b50565b5f813590506120828161205e565b92915050565b5f6020828403121561209d5761209c611ef0565b5b5f6120aa84828501612074565b91505092915050565b5f73ffffffffffffffffffffffffffffffffffffffff82169050919050565b5f6120dc826120b3565b9050919050565b6120ec816120d2565b82525050565b5f6020820190506121055f8301846120e3565b92915050565b612114816120d2565b811461211e575f80fd5b50565b5f8135905061212f8161210b565b92915050565b5f806040838503121561214b5761214a611ef0565b5b5f61215885828601612121565b925050602061216985828601612074565b9150509250929050565b61217c81612055565b82525050565b5f6020820190506121955f830184612173565b92915050565b5f805f606084860312156121b2576121b1611ef0565b5b5f6121bf86828701612121565b93505060206121d086828701612121565b92505060406121e186828701612074565b9150509250925092565b5f819050919050565b6121fd816121eb565b82525050565b5f610100820190508181035f83015261221c818b611ffd565b905061222b602083018a6120e3565b61223860408301896121f4565b61224560608301886121f4565b61225260808301876121f4565b61225f60a0830186612173565b61226c60c0830185612173565b61227960e0830184612173565b9998505050505050505050565b5f6020828403121561229b5761229a611ef0565b5b5f6122a884828501612121565b91505092915050565b5f82825260208201905092915050565b5f6122cb82611fab565b6122d581856122b1565b93506122e5818560208601611fc5565b6122ee81611fed565b840191505092915050565b612302816120d2565b82525050565b612311816121eb565b82525050565b61232081612055565b82525050565b5f61010083015f8301518482035f86015261234182826122c1565b915050602083015161235660208601826122f9565b5060408301516123696040860182612308565b50606083015161237c6060860182612308565b50608083015161238f6080860182612308565b5060a08301516123a260a0860182612317565b5060c08301516123b560c0860182612317565b5060e08301516123c860e0860182612317565b508091505092915050565b5f6020820190508181035f8301526123eb8184612326565b905092915050565b6123fc81611f78565b8114612406575f80fd5b50565b5f81359050612417816123f3565b92915050565b5f806040838503121561243357612432611ef0565b5b5f61244085828601612121565b925050602061245185828601612409565b9150509250929050565b5f80fd5b5f80fd5b7f4e487b71000000000000000000000000000000000000000000000000000000005f52604160045260245ffd5b61249982611fed565b810181811067ffffffffffffffff821117156124b8576124b7612463565b5b80604052505050565b5f6124ca611ee7565b90506124d68282612490565b919050565b5f67ffffffffffffffff8211156124f5576124f4612463565b5b6124fe82611fed565b9050602081019050919050565b828183375f83830152505050565b5f61252b612526846124db565b6124c1565b9050828152602081018484840111156125475761254661245f565b5b61255284828561250b565b509392505050565b5f82601f83011261256e5761256d61245b565b5b813561257e848260208601612519565b91505092915050565b5f805f806080858703121561259f5761259e611ef0565b5b5f6125ac87828801612121565b94505060206125bd87828801612121565b93505060406125ce87828801612074565b925050606085013567ffffffffffffffff8111156125ef576125ee611ef4565b5b6125fb8782880161255a565b91505092959194509250565b5f81519050919050565b5f82825260208201905092915050565b5f819050602082019050919050565b5f61010083015f8301518482035f86015261264b82826122c1565b915050602083015161266060208601826122f9565b5060408301516126736040860182612308565b5060608301516126866060860182612308565b5060808301516126996080860182612308565b5060a08301516126ac60a0860182612317565b5060c08301516126bf60c0860182612317565b5060e08301516126d260e0860182612317565b508091505092915050565b5f6126e88383612630565b905092915050565b5f602082019050919050565b5f61270682612607565b6127108185612611565b93508360208202850161272285612621565b805f5b8581101561275d578484038952815161273e85826126dd565b9450612749836126f0565b925060208a01995050600181019050612725565b50829750879550505050505092915050565b5f6020820190508181035f83015261278781846126fc565b905092915050565b5f80604083850312156127a5576127a4611ef0565b5b5f6127b285828601612121565b92505060206127c385828601612121565b9150509250929050565b7f4e487b71000000000000000000000000000000000000000000000000000000005f52602260045260245ffd5b5f600282049050600182168061281157607f821691505b602082108103612824576128236127cd565b5b50919050565b7f4552433732313a20617070726f76616c20746f2063757272656e74206f776e655f8201527f7200000000000000000000000000000000000000000000000000000000000000602082015250565b5f612884602183611fb5565b915061288f8261282a565b604082019050919050565b5f6020820190508181035f8301526128b181612878565b9050919050565b7f4552433732313a20617070726f76652063616c6c6572206973206e6f7420746f5f8201527f6b656e206f776e6572206f7220617070726f76656420666f7220616c6c000000602082015250565b5f612912603d83611fb5565b915061291d826128b8565b604082019050919050565b5f6020820190508181035f83015261293f81612906565b9050919050565b7f4552433732313a207472616e736665722063616c6c6572206973206e6f74206f5f8201527f776e6572206f7220617070726f76656400000000000000000000000000000000602082015250565b5f6129a0603083611fb5565b91506129ab82612946565b604082019050919050565b5f6020820190508181035f8301526129cd81612994565b9050919050565b7f4e487b71000000000000000000000000000000000000000000000000000000005f52601160045260245ffd5b5f612a0b82612055565b9150612a1683612055565b9250828203905081811115612a2e57612a2d6129d4565b5b92915050565b7f4e487b71000000000000000000000000000000000000000000000000000000005f52603260045260245ffd5b7f4552433732313a20696e76616c696420746f6b656e20494400000000000000005f82015250565b5f612a95601883611fb5565b9150612aa082612a61565b602082019050919050565b5f6020820190508181035f830152612ac281612a89565b9050919050565b7f4552433732313a2061646472657373207a65726f206973206e6f7420612076615f8201527f6c6964206f776e65720000000000000000000000000000000000000000000000602082015250565b5f612b23602983611fb5565b9150612b2e82612ac9565b604082019050919050565b5f6020820190508181035f830152612b5081612b17565b9050919050565b5f612b6182612055565b9150612b6c83612055565b9250828201905080821115612b8457612b836129d4565b5b92915050565b7f4552433732313a2063616c6c6572206973206e6f7420746f6b656e206f776e655f8201527f72206f7220617070726f76656400000000000000000000000000000000000000602082015250565b5f612be4602d83611fb5565b9150612bef82612b8a565b604082019050919050565b5f6020820190508181035f830152612c1181612bd8565b9050919050565b5f81905092915050565b5f612c2c82611fab565b612c368185612c18565b9350612c46818560208601611fc5565b80840191505092915050565b5f612c5d8285612c22565b9150612c698284612c22565b91508190509392505050565b7f4552433732313a207472616e736665722066726f6d20696e636f7272656374205f8201527f6f776e6572000000000000000000000000000000000000000000000000000000602082015250565b5f612ccf602583611fb5565b9150612cda82612c75565b604082019050919050565b5f6020820190508181035f830152612cfc81612cc3565b9050919050565b7f4552433732313a207472616e7366657220746f20746865207a65726f206164645f8201527f7265737300000000000000000000000000000000000000000000000000000000602082015250565b5f612d5d602483611fb5565b9150612d6882612d03565b604082019050919050565b5f6020820190508181035f830152612d8a81612d51565b9050919050565b7f4552433732313a20617070726f766520746f2063616c6c6572000000000000005f82015250565b5f612dc5601983611fb5565b9150612dd082612d91565b602082019050919050565b5f6020820190508181035f830152612df281612db9565b9050919050565b7f4552433732313a207472616e7366657220746f206e6f6e2045524337323152655f8201527f63656976657220696d706c656d656e7465720000000000000000000000000000602082015250565b5f612e53603283611fb5565b9150612e5e82612df9565b604082019050919050565b5f6020820190508181035f830152612e8081612e47565b9050919050565b7f4e487b71000000000000000000000000000000000000000000000000000000005f52601260045260245ffd5b5f81519050919050565b5f82825260208201905092915050565b5f612ed882612eb4565b612ee28185612ebe565b9350612ef2818560208601611fc5565b612efb81611fed565b840191505092915050565b5f608082019050612f195f8301876120e3565b612f2660208301866120e3565b612f336040830185612173565b8181036060830152612f458184612ece565b905095945050505050565b5f81519050612f5e81611f23565b92915050565b5f60208284031215612f7957612f78611ef0565b5b5f612f8684828501612f50565b91505092915050565b7f4552433732313a206d696e7420746f20746865207a65726f20616464726573735f82015250565b5f612fc3602083611fb5565b9150612fce82612f8f565b602082019050919050565b5f6020820190508181035f830152612ff081612fb7565b9050919050565b7f4552433732313a20746f6b656e20616c7265616479206d696e746564000000005f82015250565b5f61302b601c83611fb5565b915061303682612ff7565b602082019050919050565b5f6020820190508181035f8301526130588161301f565b905091905056fea2646970667358221220a6c1cbc69a51b19a0de85d8c5faefeefd806af4dac7559c1a47ccf3c156fcbb664736f6c63430008150033",
  "immutableReferences": {},
  "source": "// SPDX-License-Identifier: MIT\n\npragma solidity ^0.8.2;\n\n\nimport {ERC721} from \"@openzeppelin/contracts/token/ERC721/ERC721.sol\";\n\n\n\ncontract Land is ERC721 {\n    uint256 public cost = 1 ether;\n    uint256 public maxSupply = 5;\n    uint256 public totalSupply = 0;\n\n    struct Building {\n        string name;\n        address owner;\n        int256 posX;\n        int256 posY;\n        int256 posZ;\n        uint256 sizeX;\n        uint256 sizeY;\n        uint256 sizeZ;\n    }\n\n    Building[] public buildings;\n\n    constructor(\n        string memory _name,\n        string memory _symbol,\n        uint256 _cost\n    ) ERC721(_name, _symbol) {\n        cost = _cost;\n        buildings.push(\n            Building(\"City Hall\", address(0x0), 0, 0, 0, 10, 10, 10) //address(0x0) means available land\n        );\n        buildings.push(Building(\"Stadium\", address(0x0), 0, 10, 0, 10, 5, 3));\n        buildings.push(\n            Building(\"University\", address(0x0), 0, -10, 0, 10, 5, 3)\n        );\n        buildings.push(\n            Building(\"Shopping Plaza 1\", address(0x0), 10, 0, 0, 5, 25, 5)\n        );\n        buildings.push(\n            Building(\"Shopping Plaza 2\", address(0x0), -10, 0, 0, 5, 25, 5)\n        );\n    }\n\n    function mint(uint256 _id) public payable {\n        uint256 supply = totalSupply;\n        require(supply <= maxSupply);\n        require(buildings[_id - 1].owner == address(0x0)); //ensure that land to be minted/sold has no owner currently\n        require(msg.value >= 1 ether); //money must be greater than one ether\n\n        //ready to buy land..\n        buildings[_id - 1].owner = msg.sender;\n        totalSupply = totalSupply + 1;\n        _safeMint(msg.sender, _id); //from ERC721 contracts, handles the buying\n    }\n\n    //implement funcs from ERC721\n    function transferFrom(\n        address from,\n        address to,\n        uint256 tokenId\n    ) public override {\n        require(\n            _isApprovedOrOwner(_msgSender(), tokenId),\n            \"ERC721: transfer caller is not owner or approved\"\n        );\n\n        buildings[tokenId - 1].owner = to;\n        _transfer(from, to, tokenId);\n    }\n\n    function getBuildings() public view returns (Building[] memory) {\n        //reads from blockchain\n        return buildings;\n    }\n\n    function getBuilding(uint256 _id) public view returns (Building memory) {\n        return buildings[_id - 1];\n    }\n}\n",
  "sourcePath": "/Users/leo/leo-unchained/metaverse-x/src/contracts/Land.sol",
  "compiler": {
    "name": "solc",
    "version": "0.8.21+commit.d9974bed.Emscripten.clang"
  },
  "schemaVersion": "3.4.16",
  "updatedAt": "2023-10-23T18:57:29.885Z",
  "networkType": "ethereum",
  "devdoc": {
    "events": {
      "Approval(address,address,uint256)": {
        "details": "Emitted when `owner` enables `approved` to manage the `tokenId` token."
      },
      "ApprovalForAll(address,address,bool)": {
        "details": "Emitted when `owner` enables or disables (`approved`) `operator` to manage all of its assets."
      },
      "Transfer(address,address,uint256)": {
        "details": "Emitted when `tokenId` token is transferred from `from` to `to`."
      }
    },
    "kind": "dev",
    "methods": {
      "approve(address,uint256)": {
        "details": "See {IERC721-approve}."
      },
      "balanceOf(address)": {
        "details": "See {IERC721-balanceOf}."
      },
      "getApproved(uint256)": {
        "details": "See {IERC721-getApproved}."
      },
      "isApprovedForAll(address,address)": {
        "details": "See {IERC721-isApprovedForAll}."
      },
      "name()": {
        "details": "See {IERC721Metadata-name}."
      },
      "ownerOf(uint256)": {
        "details": "See {IERC721-ownerOf}."
      },
      "safeTransferFrom(address,address,uint256)": {
        "details": "See {IERC721-safeTransferFrom}."
      },
      "safeTransferFrom(address,address,uint256,bytes)": {
        "details": "See {IERC721-safeTransferFrom}."
      },
      "setApprovalForAll(address,bool)": {
        "details": "See {IERC721-setApprovalForAll}."
      },
      "supportsInterface(bytes4)": {
        "details": "See {IERC165-supportsInterface}."
      },
      "symbol()": {
        "details": "See {IERC721Metadata-symbol}."
      },
      "tokenURI(uint256)": {
        "details": "See {IERC721Metadata-tokenURI}."
      },
      "transferFrom(address,address,uint256)": {
        "details": "See {IERC721-transferFrom}."
      }
    },
    "version": 1
  },
  "userdoc": {
    "kind": "user",
    "methods": {},
    "version": 1
  }
}